{
  "transactions": [
    {
      "hash": "0x646d6cc5a2338eb554bf406dc34fd24fe07fca44f92e30b11f374df757490514",
      "transactionType": "CALL",
      "contractName": null,
      "contractAddress": "0xbbbbbbbbbb9cc5e90e3b3af64bdaf62c37eeffcb",
      "function": "createMarket((address,address,address,address,uint256))",
      "arguments": [
        "(0xCa83DDE9c22254f58e771bE5E157773212AcBAc3, 0xC02aaA39b223FE8D0A0e5C4F27eAD9083C756Cc2, 0x4F90106502F3560a8e1Cc7A6801C706fa8DABA27, 0x870aC11D48B15DB9a138Cf899d20F13F79Ba00BC, 860000000000000000)"
      ],
      "transaction": {
        "from": "0xe173b056ef552c7322040703ddfc1e0638a575d3",
        "to": "0xbbbbbbbbbb9cc5e90e3b3af64bdaf62c37eeffcb",
        "gas": "0x47359",
        "value": "0x0",
        "input": "0x8c1358a2000000000000000000000000ca83dde9c22254f58e771be5e157773212acbac3000000000000000000000000c02aaa39b223fe8d0a0e5c4f27ead9083c756cc20000000000000000000000004f90106502f3560a8e1cc7a6801c706fa8daba27000000000000000000000000870ac11d48b15db9a138cf899d20f13f79ba00bc0000000000000000000000000000000000000000000000000bef55718ad60000",
        "nonce": "0x4a",
        "chainId": "0x1"
      },
      "additionalContracts": [],
      "isFixedGasLimit": false
    },
    {
      "hash": "0xcb76269214a3cab02b95f1ce47e097af53350664b718f8fb86c2ace38e5a27c7",
      "transactionType": "CALL",
      "contractName": null,
      "contractAddress": "0xc02aaa39b223fe8d0a0e5c4f27ead9083c756cc2",
      "function": "deposit()",
      "arguments": [],
      "transaction": {
        "from": "0xe173b056ef552c7322040703ddfc1e0638a575d3",
        "to": "0xc02aaa39b223fe8d0a0e5c4f27ead9083c756cc2",
        "gas": "0xf2ff",
        "value": "0x38d7ea4c68000",
        "input": "0xd0e30db0",
        "nonce": "0x4b",
        "chainId": "0x1"
      },
      "additionalContracts": [],
      "isFixedGasLimit": false
    },
    {
      "hash": "0xd86a5db57c8cd5f5a1d947ab6d0a0166f642f6c5b22fbe5fa1ebd0f20dec1e2f",
      "transactionType": "CALL",
      "contractName": "PeggedToken",
      "contractAddress": "0xca83dde9c22254f58e771be5e157773212acbac3",
      "function": "approve(address,uint256)",
      "arguments": [
        "0xBBBBBbbBBb9cC5e90e3b3Af64bdAF62C37EEFFCb",
        "1000000000000000000"
      ],
      "transaction": {
        "from": "0xe173b056ef552c7322040703ddfc1e0638a575d3",
        "to": "0xca83dde9c22254f58e771be5e157773212acbac3",
        "gas": "0xfa69",
        "value": "0x0",
        "input": "0x095ea7b3000000000000000000000000bbbbbbbbbb9cc5e90e3b3af64bdaf62c37eeffcb0000000000000000000000000000000000000000000000000de0b6b3a7640000",
        "nonce": "0x4c",
        "chainId": "0x1"
      },
      "additionalContracts": [],
      "isFixedGasLimit": false
    },
    {
      "hash": "0x0500eb424237c7110fbdac61cc649fd9b36e7df76e6d7d3f1145395d4461aa4b",
      "transactionType": "CALL",
      "contractName": null,
      "contractAddress": "0xc02aaa39b223fe8d0a0e5c4f27ead9083c756cc2",
      "function": "approve(address,uint256)",
      "arguments": [
        "0xBBBBBbbBBb9cC5e90e3b3Af64bdAF62C37EEFFCb",
        "1000000000000000"
      ],
      "transaction": {
        "from": "0xe173b056ef552c7322040703ddfc1e0638a575d3",
        "to": "0xc02aaa39b223fe8d0a0e5c4f27ead9083c756cc2",
        "gas": "0xf879",
        "value": "0x0",
        "input": "0x095ea7b3000000000000000000000000bbbbbbbbbb9cc5e90e3b3af64bdaf62c37eeffcb00000000000000000000000000000000000000000000000000038d7ea4c68000",
        "nonce": "0x4d",
        "chainId": "0x1"
      },
      "additionalContracts": [],
      "isFixedGasLimit": false
    },
    {
      "hash": "0x4feb7b8504d4b90cc5ab60e0f59d5cdffaa842a95568146a5fc0212ed228ee0a",
      "transactionType": "CALL",
      "contractName": null,
      "contractAddress": "0xbbbbbbbbbb9cc5e90e3b3af64bdaf62c37eeffcb",
      "function": "supply((address,address,address,address,uint256),uint256,uint256,address,bytes)",
      "arguments": [
        "(0xCa83DDE9c22254f58e771bE5E157773212AcBAc3, 0xC02aaA39b223FE8D0A0e5C4F27eAD9083C756Cc2, 0x4F90106502F3560a8e1Cc7A6801C706fa8DABA27, 0x870aC11D48B15DB9a138Cf899d20F13F79Ba00BC, 860000000000000000)",
        "1000000000000000000",
        "0",
        "0xE173b056eF552c7322040703dDfC1e0638A575d3",
        "0x"
      ],
      "transaction": {
        "from": "0xe173b056ef552c7322040703ddfc1e0638a575d3",
        "to": "0xbbbbbbbbbb9cc5e90e3b3af64bdaf62c37eeffcb",
        "gas": "0x2155c",
        "value": "0x0",
        "input": "0xa99aad89000000000000000000000000ca83dde9c22254f58e771be5e157773212acbac3000000000000000000000000c02aaa39b223fe8d0a0e5c4f27ead9083c756cc20000000000000000000000004f90106502f3560a8e1cc7a6801c706fa8daba27000000000000000000000000870ac11d48b15db9a138cf899d20f13f79ba00bc0000000000000000000000000000000000000000000000000bef55718ad600000000000000000000000000000000000000000000000000000de0b6b3a76400000000000000000000000000000000000000000000000000000000000000000000000000000000000000000000e173b056ef552c7322040703ddfc1e0638a575d300000000000000000000000000000000000000000000000000000000000001200000000000000000000000000000000000000000000000000000000000000000",
        "nonce": "0x4e",
        "chainId": "0x1"
      },
      "additionalContracts": [],
      "isFixedGasLimit": false
    },
    {
      "hash": "0x708b6ab9a25b976baa9d6d27beb0d0b4bd4122ff5e97b15f745c239ee1107f26",
      "transactionType": "CALL",
      "contractName": null,
      "contractAddress": "0xbbbbbbbbbb9cc5e90e3b3af64bdaf62c37eeffcb",
      "function": "supplyCollateral((address,address,address,address,uint256),uint256,address,bytes)",
      "arguments": [
        "(0xCa83DDE9c22254f58e771bE5E157773212AcBAc3, 0xC02aaA39b223FE8D0A0e5C4F27eAD9083C756Cc2, 0x4F90106502F3560a8e1Cc7A6801C706fa8DABA27, 0x870aC11D48B15DB9a138Cf899d20F13F79Ba00BC, 860000000000000000)",
        "1000000000000000",
        "0xE173b056eF552c7322040703dDfC1e0638A575d3",
        "0x"
      ],
      "transaction": {
        "from": "0xe173b056ef552c7322040703ddfc1e0638a575d3",
        "to": "0xbbbbbbbbbb9cc5e90e3b3af64bdaf62c37eeffcb",
        "gas": "0x1729f",
        "value": "0x0",
        "input": "0x238d6579000000000000000000000000ca83dde9c22254f58e771be5e157773212acbac3000000000000000000000000c02aaa39b223fe8d0a0e5c4f27ead9083c756cc20000000000000000000000004f90106502f3560a8e1cc7a6801c706fa8daba27000000000000000000000000870ac11d48b15db9a138cf899d20f13f79ba00bc0000000000000000000000000000000000000000000000000bef55718ad6000000000000000000000000000000000000000000000000000000038d7ea4c68000000000000000000000000000e173b056ef552c7322040703ddfc1e0638a575d300000000000000000000000000000000000000000000000000000000000001000000000000000000000000000000000000000000000000000000000000000000",
        "nonce": "0x4f",
        "chainId": "0x1"
      },
      "additionalContracts": [],
      "isFixedGasLimit": false
    },
    {
      "hash": "0x3626a4f77fa402a9a64d5ee97ceb8c42d4a0c0b9cce8dd6e393b19adab39cef5",
      "transactionType": "CALL",
      "contractName": null,
      "contractAddress": "0xbbbbbbbbbb9cc5e90e3b3af64bdaf62c37eeffcb",
      "function": "borrow((address,address,address,address,uint256),uint256,uint256,address,address)",
      "arguments": [
        "(0xCa83DDE9c22254f58e771bE5E157773212AcBAc3, 0xC02aaA39b223FE8D0A0e5C4F27eAD9083C756Cc2, 0x4F90106502F3560a8e1Cc7A6801C706fa8DABA27, 0x870aC11D48B15DB9a138Cf899d20F13F79Ba00BC, 860000000000000000)",
        "900000000000000000",
        "0",
        "0xE173b056eF552c7322040703dDfC1e0638A575d3",
        "0xE173b056eF552c7322040703dDfC1e0638A575d3"
      ],
      "transaction": {
        "from": "0xe173b056ef552c7322040703ddfc1e0638a575d3",
        "to": "0xbbbbbbbbbb9cc5e90e3b3af64bdaf62c37eeffcb",
        "gas": "0x24a4a",
        "value": "0x0",
        "input": "0x50d8cd4b000000000000000000000000ca83dde9c22254f58e771be5e157773212acbac3000000000000000000000000c02aaa39b223fe8d0a0e5c4f27ead9083c756cc20000000000000000000000004f90106502f3560a8e1cc7a6801c706fa8daba27000000000000000000000000870ac11d48b15db9a138cf899d20f13f79ba00bc0000000000000000000000000000000000000000000000000bef55718ad600000000000000000000000000000000000000000000000000000c7d713b49da00000000000000000000000000000000000000000000000000000000000000000000000000000000000000000000e173b056ef552c7322040703ddfc1e0638a575d3000000000000000000000000e173b056ef552c7322040703ddfc1e0638a575d3",
        "nonce": "0x50",
        "chainId": "0x1"
      },
      "additionalContracts": [],
      "isFixedGasLimit": false
    }
  ],
  "receipts": [
    {
      "status": "0x1",
      "cumulativeGasUsed": "0x19b49d6",
      "logs": [
        {
          "address": "0xbbbbbbbbbb9cc5e90e3b3af64bdaf62c37eeffcb",
          "topics": [
            "0xac4b2400f169220b0c0afdde7a0b32e775ba727ea1cb30b35f935cdaab8683ac",
            "0x7d1306d23f9f1e419697b8275001db9ea74b3c75190a7db8f5d81fed2fb94561"
          ],
          "data": "0x000000000000000000000000ca83dde9c22254f58e771be5e157773212acbac3000000000000000000000000c02aaa39b223fe8d0a0e5c4f27ead9083c756cc20000000000000000000000004f90106502f3560a8e1cc7a6801c706fa8daba27000000000000000000000000870ac11d48b15db9a138cf899d20f13f79ba00bc0000000000000000000000000000000000000000000000000bef55718ad60000",
          "blockHash": "0x5728ba079554cef850df142d5de0c756a03f3ebe91fe44dd71ed7d997539d47b",
          "blockNumber": "0x1788790",
          "blockTimestamp": "0x69b91ad3",
          "transactionHash": "0x646d6cc5a2338eb554bf406dc34fd24fe07fca44f92e30b11f374df757490514",
          "transactionIndex": "0x11a",
          "logIndex": "0x281",
          "removed": false
        },
        {
          "address": "0x870ac11d48b15db9a138cf899d20f13f79ba00bc",
          "topics": [
            "0x7120161a7b3d31251e01294ab351ef15a41b91659a36032e4641bb89b121e321",
            "0x7d1306d23f9f1e419697b8275001db9ea74b3c75190a7db8f5d81fed2fb94561"
          ],
          "data": "0x0000000000000000000000000000000000000000000000000000000012e687bf000000000000000000000000000000000000000000000000000000004b9a1eff",
          "blockHash": "0x5728ba079554cef850df142d5de0c756a03f3ebe91fe44dd71ed7d997539d47b",
          "blockNumber": "0x1788790",
          "blockTimestamp": "0x69b91ad3",
          "transactionHash": "0x646d6cc5a2338eb554bf406dc34fd24fe07fca44f92e30b11f374df757490514",
          "transactionIndex": "0x11a",
          "logIndex": "0x282",
          "removed": false
        }
      ],
      "logsBloom": "0x00000000000000000000000000000800000000000000000000000000000000000000000000000000000000000000000000000000000000000000000000844000000000000010000000000000000000000000000000200000000000000000000000000000000000000000000000000000000000000000000100000040000000000000001000000008000000000000000000000000000000000000000000000000000000000000000000000000000000000000000000000000000000000000000020000000000000000001000000000000000000000000000000000000000000000000000000000000000000000001000002000000000000000000000000000010",
      "type": "0x2",
      "transactionHash": "0x646d6cc5a2338eb554bf406dc34fd24fe07fca44f92e30b11f374df757490514",
      "transactionIndex": "0x11a",
      "blockHash": "0x5728ba079554cef850df142d5de0c756a03f3ebe91fe44dd71ed7d997539d47b",
      "blockNumber": "0x1788790",
      "gasUsed": "0x30b0b",
      "effectiveGasPrice": "0x6099077",
      "from": "0xe173b056ef552c7322040703ddfc1e0638a575d3",
      "to": "0xbbbbbbbbbb9cc5e90e3b3af64bdaf62c37eeffcb",
      "contractAddress": null
    },
    {
      "status": "0x1",
      "cumulativeGasUsed": "0xa766b9",
      "logs": [
        {
          "address": "0xc02aaa39b223fe8d0a0e5c4f27ead9083c756cc2",
          "topics": [
            "0xe1fffcc4923d04b559f4d29a8bfc6cda04eb5b0d3c460751c2402c5c5cc9109c",
            "0x000000000000000000000000e173b056ef552c7322040703ddfc1e0638a575d3"
          ],
          "data": "0x00000000000000000000000000000000000000000000000000038d7ea4c68000",
          "blockHash": "0xa7d547bcf9d2346e1bf2cedb666779b3370a2f482353611f96f3835be59b836e",
          "blockNumber": "0x1788791",
          "blockTimestamp": "0x69b91adf",
          "transactionHash": "0xcb76269214a3cab02b95f1ce47e097af53350664b718f8fb86c2ace38e5a27c7",
          "transactionIndex": "0x84",
          "logIndex": "0x132",
          "removed": false
        }
      ],
      "logsBloom": "0x00000000000000000000000002000000000000000000000000000000000000000000000000000000000000000000000002000000080000000000000004000000000000000000000000000000000000000000000000000000000000008000000000000000000100000000000000000000000000000000000000000000000000000000000000000000000000000000000000000001000000000000000000000000000000000000000000000000000000000000000000000000000000000000000000000000000000000000000000000000000000000000000000000000000000000000200000000000000000000000000000000000000000400000000000000000",
      "type": "0x2",
      "transactionHash": "0xcb76269214a3cab02b95f1ce47e097af53350664b718f8fb86c2ace38e5a27c7",
      "transactionIndex": "0x84",
      "blockHash": "0xa7d547bcf9d2346e1bf2cedb666779b3370a2f482353611f96f3835be59b836e",
      "blockNumber": "0x1788791",
      "gasUsed": "0xafee",
      "effectiveGasPrice": "0x6b630dc",
      "from": "0xe173b056ef552c7322040703ddfc1e0638a575d3",
      "to": "0xc02aaa39b223fe8d0a0e5c4f27ead9083c756cc2",
      "contractAddress": null
    },
    {
      "status": "0x1",
      "cumulativeGasUsed": "0x1fc6d68",
      "logs": [
        {
          "address": "0xca83dde9c22254f58e771be5e157773212acbac3",
          "topics": [
            "0x8c5be1e5ebec7d5bd14f71427d1e84f3dd0314c0f7b2291e5b200ac8c7c3b925",
            "0x000000000000000000000000e173b056ef552c7322040703ddfc1e0638a575d3",
            "0x000000000000000000000000bbbbbbbbbb9cc5e90e3b3af64bdaf62c37eeffcb"
          ],
          "data": "0x0000000000000000000000000000000000000000000000000de0b6b3a7640000",
          "blockHash": "0xac3dc019fff62375519b1da590a28c0f211424b5c4efb0246d18f2df615f0681",
          "blockNumber": "0x1788796",
          "blockTimestamp": "0x69b91b1b",
          "transactionHash": "0xd86a5db57c8cd5f5a1d947ab6d0a0166f642f6c5b22fbe5fa1ebd0f20dec1e2f",
          "transactionIndex": "0x247",
          "logIndex": "0x217",
          "removed": false
        }
      ],
      "logsBloom": "0x00000000000000000000000002000080000000000000000000000000000000000000000400000000000000000000000800000000000000000000000004200000000000000000000000000000000000000000000000000000000000000000000008000000000100000000000000000000000000000000000000000000000000000000000000000000000000000000000000000000000000000000000000000000020000000000000000000000000000000000000000000000000000000000000000000000000000000000000000000000000000000000000000000000000000000010000001000000000000200000000000000000000000000000000000000000",
      "type": "0x2",
      "transactionHash": "0xd86a5db57c8cd5f5a1d947ab6d0a0166f642f6c5b22fbe5fa1ebd0f20dec1e2f",
      "transactionIndex": "0x247",
      "blockHash": "0xac3dc019fff62375519b1da590a28c0f211424b5c4efb0246d18f2df615f0681",
      "blockNumber": "0x1788796",
      "gasUsed": "0xb54c",
      "effectiveGasPrice": "0x634fec2",
      "from": "0xe173b056ef552c7322040703ddfc1e0638a575d3",
      "to": "0xca83dde9c22254f58e771be5e157773212acbac3",
      "contractAddress": null
    },
    {
      "status": "0x1",
      "cumulativeGasUsed": "0x1dff436",
      "logs": [
        {
          "address": "0xc02aaa39b223fe8d0a0e5c4f27ead9083c756cc2",
          "topics": [
            "0x8c5be1e5ebec7d5bd14f71427d1e84f3dd0314c0f7b2291e5b200ac8c7c3b925",
            "0x000000000000000000000000e173b056ef552c7322040703ddfc1e0638a575d3",
            "0x000000000000000000000000bbbbbbbbbb9cc5e90e3b3af64bdaf62c37eeffcb"
          ],
          "data": "0x00000000000000000000000000000000000000000000000000038d7ea4c68000",
          "blockHash": "0x7dbd0e6173ca225d33c5963f1caeacb0b9d20e60bf7b303572ae4a312674977e",
          "blockNumber": "0x1788797",
          "blockTimestamp": "0x69b91b27",
          "transactionHash": "0x0500eb424237c7110fbdac61cc649fd9b36e7df76e6d7d3f1145395d4461aa4b",
          "transactionIndex": "0x1d1",
          "logIndex": "0x323",
          "removed": false
        }
      ],
      "logsBloom": "0x00000000000000000000000002000080000000000000000000000000000000000000000000000000000000000000000002000000080000000000000004200000000000000000000000000000000000000000000000000000000000000000000000000000000100000000000000000000000000000000000000000000000000000000000000000000000000000000000000000000000000000000000000000000020000000000000000000000000000000000000000000000000000000000000000000000000000000000000000000000000000000000000000000000000000000010200001000000000000200000000000000000000000000000000000000000",
      "type": "0x2",
      "transactionHash": "0x0500eb424237c7110fbdac61cc649fd9b36e7df76e6d7d3f1145395d4461aa4b",
      "transactionIndex": "0x1d1",
      "blockHash": "0x7dbd0e6173ca225d33c5963f1caeacb0b9d20e60bf7b303572ae4a312674977e",
      "blockNumber": "0x1788797",
      "gasUsed": "0xb3e4",
      "effectiveGasPrice": "0x66d5903",
      "from": "0xe173b056ef552c7322040703ddfc1e0638a575d3",
      "to": "0xc02aaa39b223fe8d0a0e5c4f27ead9083c756cc2",
      "contractAddress": null
    },
    {
      "status": "0x1",
      "cumulativeGasUsed": "0x23ab8ea",
      "logs": [
        {
          "address": "0x870ac11d48b15db9a138cf899d20f13f79ba00bc",
          "topics": [
            "0x7120161a7b3d31251e01294ab351ef15a41b91659a36032e4641bb89b121e321",
            "0x7d1306d23f9f1e419697b8275001db9ea74b3c75190a7db8f5d81fed2fb94561"
          ],
          "data": "0x0000000000000000000000000000000000000000000000000000000012e6297c000000000000000000000000000000000000000000000000000000004b972ceb",
          "blockHash": "0xf01faf69ea60ad34c973e6b380fd4c94cd7259c5bd105d417d1adf3ace1c87b8",
          "blockNumber": "0x1788798",
          "blockTimestamp": "0x69b91b33",
          "transactionHash": "0x4feb7b8504d4b90cc5ab60e0f59d5cdffaa842a95568146a5fc0212ed228ee0a",
          "transactionIndex": "0x1a6",
          "logIndex": "0x311",
          "removed": false
        },
        {
          "address": "0xbbbbbbbbbb9cc5e90e3b3af64bdaf62c37eeffcb",
          "topics": [
            "0x9d9bd501d0657d7dfe415f779a620a62b78bc508ddc0891fbbd8b7ac0f8fce87",
            "0x7d1306d23f9f1e419697b8275001db9ea74b3c75190a7db8f5d81fed2fb94561"
          ],
          "data": "0x0000000000000000000000000000000000000000000000000000000012e6297c00000000000000000000000000000000000000000000000000000000000000000000000000000000000000000000000000000000000000000000000000000000",
          "blockHash": "0xf01faf69ea60ad34c973e6b380fd4c94cd7259c5bd105d417d1adf3ace1c87b8",
          "blockNumber": "0x1788798",
          "blockTimestamp": "0x69b91b33",
          "transactionHash": "0x4feb7b8504d4b90cc5ab60e0f59d5cdffaa842a95568146a5fc0212ed228ee0a",
          "transactionIndex": "0x1a6",
          "logIndex": "0x312",
          "removed": false
        },
        {
          "address": "0xbbbbbbbbbb9cc5e90e3b3af64bdaf62c37eeffcb",
          "topics": [
            "0xedf8870433c83823eb071d3df1caa8d008f12f6440918c20d75a3602cda30fe0",
            "0x7d1306d23f9f1e419697b8275001db9ea74b3c75190a7db8f5d81fed2fb94561",
            "0x000000000000000000000000e173b056ef552c7322040703ddfc1e0638a575d3",
            "0x000000000000000000000000e173b056ef552c7322040703ddfc1e0638a575d3"
          ],
          "data": "0x0000000000000000000000000000000000000000000000000de0b6b3a764000000000000000000000000000000000000000000000000d3c21bcecceda1000000",
          "blockHash": "0xf01faf69ea60ad34c973e6b380fd4c94cd7259c5bd105d417d1adf3ace1c87b8",
          "blockNumber": "0x1788798",
          "blockTimestamp": "0x69b91b33",
          "transactionHash": "0x4feb7b8504d4b90cc5ab60e0f59d5cdffaa842a95568146a5fc0212ed228ee0a",
          "transactionIndex": "0x1a6",
          "logIndex": "0x313",
          "removed": false
        },
        {
          "address": "0xca83dde9c22254f58e771be5e157773212acbac3",
          "topics": [
            "0xddf252ad1be2c89b69c2b068fc378daa952ba7f163c4a11628f55a4df523b3ef",
            "0x000000000000000000000000e173b056ef552c7322040703ddfc1e0638a575d3",
            "0x000000000000000000000000bbbbbbbbbb9cc5e90e3b3af64bdaf62c37eeffcb"
          ],
          "data": "0x0000000000000000000000000000000000000000000000000de0b6b3a7640000",
          "blockHash": "0xf01faf69ea60ad34c973e6b380fd4c94cd7259c5bd105d417d1adf3ace1c87b8",
          "blockNumber": "0x1788798",
          "blockTimestamp": "0x69b91b33",
          "transactionHash": "0x4feb7b8504d4b90cc5ab60e0f59d5cdffaa842a95568146a5fc0212ed228ee0a",
          "transactionIndex": "0x1a6",
          "logIndex": "0x314",
          "removed": false
        }
      ],
      "logsBloom": "0x00000000000000000000000002000080000000000000000000000000000000000000400400000000000000000000000800000000000000000000000024844000000000000010000000000008800000000000000800200000000000080000000008000000000100000000000000000000000000000000000100000010000000000000001000000008000000000000000000000000000000000000000000000000000000000000000000000000000000000000000000000000000000000000000020000002000000000001000000000000000000000000000000000000000000400000000001000000000000200001000002000000000000000000000000000000",
      "type": "0x2",
      "transactionHash": "0x4feb7b8504d4b90cc5ab60e0f59d5cdffaa842a95568146a5fc0212ed228ee0a",
      "transactionIndex": "0x1a6",
      "blockHash": "0xf01faf69ea60ad34c973e6b380fd4c94cd7259c5bd105d417d1adf3ace1c87b8",
      "blockNumber": "0x1788798",
      "gasUsed": "0x1e7b5",
      "effectiveGasPrice": "0x6f51b99",
      "from": "0xe173b056ef552c7322040703ddfc1e0638a575d3",
      "to": "0xbbbbbbbbbb9cc5e90e3b3af64bdaf62c37eeffcb",
      "contractAddress": null
    },
    {
      "status": "0x1",
      "cumulativeGasUsed": "0x29d4f8a",
      "logs": [
        {
          "address": "0xbbbbbbbbbb9cc5e90e3b3af64bdaf62c37eeffcb",
          "topics": [
            "0xa3b9472a1399e17e123f3c2e6586c23e504184d504de59cdaa2b375e880c6184",
            "0x7d1306d23f9f1e419697b8275001db9ea74b3c75190a7db8f5d81fed2fb94561",
            "0x000000000000000000000000e173b056ef552c7322040703ddfc1e0638a575d3",
            "0x000000000000000000000000e173b056ef552c7322040703ddfc1e0638a575d3"
          ],
          "data": "0x00000000000000000000000000000000000000000000000000038d7ea4c68000",
          "blockHash": "0xfec5d0ca4c9508e3c963ab933f46a7f4d6a813edb81f9709173ea6533abb451a",
          "blockNumber": "0x1788799",
          "blockTimestamp": "0x69b91b3f",
          "transactionHash": "0x708b6ab9a25b976baa9d6d27beb0d0b4bd4122ff5e97b15f745c239ee1107f26",
          "transactionIndex": "0x173",
          "logIndex": "0x3e4",
          "removed": false
        },
        {
          "address": "0xc02aaa39b223fe8d0a0e5c4f27ead9083c756cc2",
          "topics": [
            "0xddf252ad1be2c89b69c2b068fc378daa952ba7f163c4a11628f55a4df523b3ef",
            "0x000000000000000000000000e173b056ef552c7322040703ddfc1e0638a575d3",
            "0x000000000000000000000000bbbbbbbbbb9cc5e90e3b3af64bdaf62c37eeffcb"
          ],
          "data": "0x00000000000000000000000000000000000000000000000000038d7ea4c68000",
          "blockHash": "0xfec5d0ca4c9508e3c963ab933f46a7f4d6a813edb81f9709173ea6533abb451a",
          "blockNumber": "0x1788799",
          "blockTimestamp": "0x69b91b3f",
          "transactionHash": "0x708b6ab9a25b976baa9d6d27beb0d0b4bd4122ff5e97b15f745c239ee1107f26",
          "transactionIndex": "0x173",
          "logIndex": "0x3e5",
          "removed": false
        }
      ],
      "logsBloom": "0x00000000000000000000000002000080000000000000000000000000000000000000000000000000000000000000000002000000080000000000000004000000000000000010000000000008000000000000000000000000000000000000000000000000000100000000000000000000000000000000000100000010000000000000009000000008000000000000000000000000000000000000000000000000000000000000000000000000000000000000000000000000000000000000000020000002000000000000000000000000000000000000000400000000000000000000200001000000000000200000200002000000000000000000000000000000",
      "type": "0x2",
      "transactionHash": "0x708b6ab9a25b976baa9d6d27beb0d0b4bd4122ff5e97b15f745c239ee1107f26",
      "transactionIndex": "0x173",
      "blockHash": "0xfec5d0ca4c9508e3c963ab933f46a7f4d6a813edb81f9709173ea6533abb451a",
      "blockNumber": "0x1788799",
      "gasUsed": "0xfd6b",
      "effectiveGasPrice": "0x73aa09d",
      "from": "0xe173b056ef552c7322040703ddfc1e0638a575d3",
      "to": "0xbbbbbbbbbb9cc5e90e3b3af64bdaf62c37eeffcb",
      "contractAddress": null
    },
    {
      "status": "0x1",
      "cumulativeGasUsed": "0x356723d",
      "logs": [
        {
          "address": "0x870ac11d48b15db9a138cf899d20f13f79ba00bc",
          "topics": [
            "0x7120161a7b3d31251e01294ab351ef15a41b91659a36032e4641bb89b121e321",
            "0x7d1306d23f9f1e419697b8275001db9ea74b3c75190a7db8f5d81fed2fb94561"
          ],
          "data": "0x0000000000000000000000000000000000000000000000000000000012e59c1a000000000000000000000000000000000000000000000000000000004b95b3ec",
          "blockHash": "0x1326d2c19505c66bdf72939485ea9e65f544b378221456db3f7b727ddfd947ff",
          "blockNumber": "0x178879c",
          "blockTimestamp": "0x69b91b63",
          "transactionHash": "0x3626a4f77fa402a9a64d5ee97ceb8c42d4a0c0b9cce8dd6e393b19adab39cef5",
          "transactionIndex": "0x383",
          "logIndex": "0x5df",
          "removed": false
        },
        {
          "address": "0xbbbbbbbbbb9cc5e90e3b3af64bdaf62c37eeffcb",
          "topics": [
            "0x9d9bd501d0657d7dfe415f779a620a62b78bc508ddc0891fbbd8b7ac0f8fce87",
            "0x7d1306d23f9f1e419697b8275001db9ea74b3c75190a7db8f5d81fed2fb94561"
          ],
          "data": "0x0000000000000000000000000000000000000000000000000000000012e59c1a00000000000000000000000000000000000000000000000000000000000000000000000000000000000000000000000000000000000000000000000000000000",
          "blockHash": "0x1326d2c19505c66bdf72939485ea9e65f544b378221456db3f7b727ddfd947ff",
          "blockNumber": "0x178879c",
          "blockTimestamp": "0x69b91b63",
          "transactionHash": "0x3626a4f77fa402a9a64d5ee97ceb8c42d4a0c0b9cce8dd6e393b19adab39cef5",
          "transactionIndex": "0x383",
          "logIndex": "0x5e0",
          "removed": false
        },
        {
          "address": "0xbbbbbbbbbb9cc5e90e3b3af64bdaf62c37eeffcb",
          "topics": [
            "0x570954540bed6b1304a87dfe815a5eda4a648f7097a16240dcd85c9b5fd42a43",
            "0x7d1306d23f9f1e419697b8275001db9ea74b3c75190a7db8f5d81fed2fb94561",
            "0x000000000000000000000000e173b056ef552c7322040703ddfc1e0638a575d3",
            "0x000000000000000000000000e173b056ef552c7322040703ddfc1e0638a575d3"
          ],
          "data": "0x000000000000000000000000e173b056ef552c7322040703ddfc1e0638a575d30000000000000000000000000000000000000000000000000c7d713b49da000000000000000000000000000000000000000000000000be951906eba2aa800000",
          "blockHash": "0x1326d2c19505c66bdf72939485ea9e65f544b378221456db3f7b727ddfd947ff",
          "blockNumber": "0x178879c",
          "blockTimestamp": "0x69b91b63",
          "transactionHash": "0x3626a4f77fa402a9a64d5ee97ceb8c42d4a0c0b9cce8dd6e393b19adab39cef5",
          "transactionIndex": "0x383",
          "logIndex": "0x5e1",
          "removed": false
        },
        {
          "address": "0xca83dde9c22254f58e771be5e157773212acbac3",
          "topics": [
            "0xddf252ad1be2c89b69c2b068fc378daa952ba7f163c4a11628f55a4df523b3ef",
            "0x000000000000000000000000bbbbbbbbbb9cc5e90e3b3af64bdaf62c37eeffcb",
            "0x000000000000000000000000e173b056ef552c7322040703ddfc1e0638a575d3"
          ],
          "data": "0x0000000000000000000000000000000000000000000000000c7d713b49da0000",
          "blockHash": "0x1326d2c19505c66bdf72939485ea9e65f544b378221456db3f7b727ddfd947ff",
          "blockNumber": "0x178879c",
          "blockTimestamp": "0x69b91b63",
          "transactionHash": "0x3626a4f77fa402a9a64d5ee97ceb8c42d4a0c0b9cce8dd6e393b19adab39cef5",
          "transactionIndex": "0x383",
          "logIndex": "0x5e2",
          "removed": false
        }
      ],
      "logsBloom": "0x00000000000000000002000002000080000000000000000000000000000000000000400400000000000000000000000800000000000000000000000024844000000000000010000000000008000000000000000000200000000000080000000008000000000100000000000000000000000000000000000100000010000000000000001000000008000000000000000000000000000000000000000000000000000000000000000000000000000000000000000000000000000000000000000020000002000000000001000000000000000000000000000000000000000000000000004001000008000000200001000002000000000000000000000000000000",
      "type": "0x2",
      "transactionHash": "0x3626a4f77fa402a9a64d5ee97ceb8c42d4a0c0b9cce8dd6e393b19adab39cef5",
      "transactionIndex": "0x383",
      "blockHash": "0x1326d2c19505c66bdf72939485ea9e65f544b378221456db3f7b727ddfd947ff",
      "blockNumber": "0x178879c",
      "gasUsed": "0x20744",
      "effectiveGasPrice": "0x694a6c7",
      "from": "0xe173b056ef552c7322040703ddfc1e0638a575d3",
      "to": "0xbbbbbbbbbb9cc5e90e3b3af64bdaf62c37eeffcb",
      "contractAddress": null
    }
  ],
  "libraries": [],
  "pending": [],
  "returns": {},
  "timestamp": 1773738853,
  "chain": 1,
  "commit": "dd1d934"
}