{
  "transactions": [
    {
      "hash": "0x21460b83e891a78aa108591709fcea1e39d8a7b6f7ca3da674d525fd47c38095",
      "transactionType": "CALL",
      "contractName": null,
      "contractAddress": "0xbbbbbbbbbb9cc5e90e3b3af64bdaf62c37eeffcb",
      "function": "createMarket((address,address,address,address,uint256))",
      "arguments": [
        "(0xCa83DDE9c22254f58e771bE5E157773212AcBAc3, 0x06ea695B91700071B161A434fED42D1DcbAD9f00, 0xda360F40ECe64F63B87E214297734e57Fb281e8C, 0x870aC11D48B15DB9a138Cf899d20F13F79Ba00BC, 770000000000000000)"
      ],
      "transaction": {
        "from": "0xe173b056ef552c7322040703ddfc1e0638a575d3",
        "to": "0xbbbbbbbbbb9cc5e90e3b3af64bdaf62c37eeffcb",
        "gas": "0x47336",
        "value": "0x0",
        "input": "0x8c1358a2000000000000000000000000ca83dde9c22254f58e771be5e157773212acbac300000000000000000000000006ea695b91700071b161a434fed42d1dcbad9f00000000000000000000000000da360f40ece64f63b87e214297734e57fb281e8c000000000000000000000000870ac11d48b15db9a138cf899d20f13f79ba00bc0000000000000000000000000000000000000000000000000aaf96eb9d0d0000",
        "nonce": "0x43",
        "chainId": "0x1"
      },
      "additionalContracts": [],
      "isFixedGasLimit": false
    },
    {
      "hash": "0xc47a8cd8e1b20a62682ec2fc850e31063e0e59fbfcb06a008d3c299873e7a61a",
      "transactionType": "CALL",
      "contractName": "PeggedToken",
      "contractAddress": "0xca83dde9c22254f58e771be5e157773212acbac3",
      "function": "approve(address,uint256)",
      "arguments": [
        "0xBBBBBbbBBb9cC5e90e3b3Af64bdAF62C37EEFFCb",
        "1000000000000000000"
      ],
      "transaction": {
        "from": "0xe173b056ef552c7322040703ddfc1e0638a575d3",
        "to": "0xca83dde9c22254f58e771be5e157773212acbac3",
        "gas": "0xfa69",
        "value": "0x0",
        "input": "0x095ea7b3000000000000000000000000bbbbbbbbbb9cc5e90e3b3af64bdaf62c37eeffcb0000000000000000000000000000000000000000000000000de0b6b3a7640000",
        "nonce": "0x44",
        "chainId": "0x1"
      },
      "additionalContracts": [],
      "isFixedGasLimit": false
    },
    {
      "hash": "0xb81578cfc007f4ea10df34daa7d8ca8aa14bbf56c554cb74915e5dfa4eba5c0e",
      "transactionType": "CALL",
      "contractName": null,
      "contractAddress": "0x06ea695b91700071b161a434fed42d1dcbad9f00",
      "function": "approve(address,uint256)",
      "arguments": [
        "0xBBBBBbbBBb9cC5e90e3b3Af64bdAF62C37EEFFCb",
        "2100"
      ],
      "transaction": {
        "from": "0xe173b056ef552c7322040703ddfc1e0638a575d3",
        "to": "0x06ea695b91700071b161a434fed42d1dcbad9f00",
        "gas": "0x105bc",
        "value": "0x0",
        "input": "0x095ea7b3000000000000000000000000bbbbbbbbbb9cc5e90e3b3af64bdaf62c37eeffcb0000000000000000000000000000000000000000000000000000000000000834",
        "nonce": "0x45",
        "chainId": "0x1"
      },
      "additionalContracts": [],
      "isFixedGasLimit": false
    },
    {
      "hash": "0xd5eb1ca8b4faa693b86809c9ab9c58a752ba1f31b61fe6963c1b87828a37ef91",
      "transactionType": "CALL",
      "contractName": null,
      "contractAddress": "0xbbbbbbbbbb9cc5e90e3b3af64bdaf62c37eeffcb",
      "function": "supply((address,address,address,address,uint256),uint256,uint256,address,bytes)",
      "arguments": [
        "(0xCa83DDE9c22254f58e771bE5E157773212AcBAc3, 0x06ea695B91700071B161A434fED42D1DcbAD9f00, 0xda360F40ECe64F63B87E214297734e57Fb281e8C, 0x870aC11D48B15DB9a138Cf899d20F13F79Ba00BC, 770000000000000000)",
        "1000000000000000000",
        "0",
        "0xE173b056eF552c7322040703dDfC1e0638A575d3",
        "0x"
      ],
      "transaction": {
        "from": "0xe173b056ef552c7322040703ddfc1e0638a575d3",
        "to": "0xbbbbbbbbbb9cc5e90e3b3af64bdaf62c37eeffcb",
        "gas": "0x2964a",
        "value": "0x0",
        "input": "0xa99aad89000000000000000000000000ca83dde9c22254f58e771be5e157773212acbac300000000000000000000000006ea695b91700071b161a434fed42d1dcbad9f00000000000000000000000000da360f40ece64f63b87e214297734e57fb281e8c000000000000000000000000870ac11d48b15db9a138cf899d20f13f79ba00bc0000000000000000000000000000000000000000000000000aaf96eb9d0d00000000000000000000000000000000000000000000000000000de0b6b3a76400000000000000000000000000000000000000000000000000000000000000000000000000000000000000000000e173b056ef552c7322040703ddfc1e0638a575d300000000000000000000000000000000000000000000000000000000000001200000000000000000000000000000000000000000000000000000000000000000",
        "nonce": "0x46",
        "chainId": "0x1"
      },
      "additionalContracts": [],
      "isFixedGasLimit": false
    },
    {
      "hash": "0x58e7c91d058f5afc895cf5040abc172bb7b8c7652bcc5343026142410d5ea4ca",
      "transactionType": "CALL",
      "contractName": null,
      "contractAddress": "0xbbbbbbbbbb9cc5e90e3b3af64bdaf62c37eeffcb",
      "function": "supplyCollateral((address,address,address,address,uint256),uint256,address,bytes)",
      "arguments": [
        "(0xCa83DDE9c22254f58e771bE5E157773212AcBAc3, 0x06ea695B91700071B161A434fED42D1DcbAD9f00, 0xda360F40ECe64F63B87E214297734e57Fb281e8C, 0x870aC11D48B15DB9a138Cf899d20F13F79Ba00BC, 770000000000000000)",
        "2100",
        "0xE173b056eF552c7322040703dDfC1e0638A575d3",
        "0x"
      ],
      "transaction": {
        "from": "0xe173b056ef552c7322040703ddfc1e0638a575d3",
        "to": "0xbbbbbbbbbb9cc5e90e3b3af64bdaf62c37eeffcb",
        "gas": "0x199e0",
        "value": "0x0",
        "input": "0x238d6579000000000000000000000000ca83dde9c22254f58e771be5e157773212acbac300000000000000000000000006ea695b91700071b161a434fed42d1dcbad9f00000000000000000000000000da360f40ece64f63b87e214297734e57fb281e8c000000000000000000000000870ac11d48b15db9a138cf899d20f13f79ba00bc0000000000000000000000000000000000000000000000000aaf96eb9d0d00000000000000000000000000000000000000000000000000000000000000000834000000000000000000000000e173b056ef552c7322040703ddfc1e0638a575d300000000000000000000000000000000000000000000000000000000000001000000000000000000000000000000000000000000000000000000000000000000",
        "nonce": "0x47",
        "chainId": "0x1"
      },
      "additionalContracts": [],
      "isFixedGasLimit": false
    },
    {
      "hash": "0x4337498cfd37ed07ddf66e3dc7c44d1b19ef685d9f87d5d588a3b8c489f2b77f",
      "transactionType": "CALL",
      "contractName": null,
      "contractAddress": "0xbbbbbbbbbb9cc5e90e3b3af64bdaf62c37eeffcb",
      "function": "borrow((address,address,address,address,uint256),uint256,uint256,address,address)",
      "arguments": [
        "(0xCa83DDE9c22254f58e771bE5E157773212AcBAc3, 0x06ea695B91700071B161A434fED42D1DcbAD9f00, 0xda360F40ECe64F63B87E214297734e57Fb281e8C, 0x870aC11D48B15DB9a138Cf899d20F13F79Ba00BC, 770000000000000000)",
        "900000000000000000",
        "0",
        "0xE173b056eF552c7322040703dDfC1e0638A575d3",
        "0xE173b056eF552c7322040703dDfC1e0638A575d3"
      ],
      "transaction": {
        "from": "0xe173b056ef552c7322040703ddfc1e0638a575d3",
        "to": "0xbbbbbbbbbb9cc5e90e3b3af64bdaf62c37eeffcb",
        "gas": "0x28d1c",
        "value": "0x0",
        "input": "0x50d8cd4b000000000000000000000000ca83dde9c22254f58e771be5e157773212acbac300000000000000000000000006ea695b91700071b161a434fed42d1dcbad9f00000000000000000000000000da360f40ece64f63b87e214297734e57fb281e8c000000000000000000000000870ac11d48b15db9a138cf899d20f13f79ba00bc0000000000000000000000000000000000000000000000000aaf96eb9d0d00000000000000000000000000000000000000000000000000000c7d713b49da00000000000000000000000000000000000000000000000000000000000000000000000000000000000000000000e173b056ef552c7322040703ddfc1e0638a575d3000000000000000000000000e173b056ef552c7322040703ddfc1e0638a575d3",
        "nonce": "0x48",
        "chainId": "0x1"
      },
      "additionalContracts": [],
      "isFixedGasLimit": false
    }
  ],
  "receipts": [
    {
      "status": "0x1",
      "cumulativeGasUsed": "0x19a2c3b",
      "logs": [
        {
          "address": "0xbbbbbbbbbb9cc5e90e3b3af64bdaf62c37eeffcb",
          "topics": [
            "0xac4b2400f169220b0c0afdde7a0b32e775ba727ea1cb30b35f935cdaab8683ac",
            "0x55609be688a4d96e715bfe39969133bd4e7f83db4f77bb06216109189a11f2e5"
          ],
          "data": "0x000000000000000000000000ca83dde9c22254f58e771be5e157773212acbac300000000000000000000000006ea695b91700071b161a434fed42d1dcbad9f00000000000000000000000000da360f40ece64f63b87e214297734e57fb281e8c000000000000000000000000870ac11d48b15db9a138cf899d20f13f79ba00bc0000000000000000000000000000000000000000000000000aaf96eb9d0d0000",
          "blockHash": "0x46db4d293713e4b6f2320200fcfd4b405bd090f627ead926352dfc1394d02331",
          "blockNumber": "0x1788708",
          "blockTimestamp": "0x69b91467",
          "transactionHash": "0x21460b83e891a78aa108591709fcea1e39d8a7b6f7ca3da674d525fd47c38095",
          "transactionIndex": "0xac",
          "logIndex": "0x157",
          "removed": false
        },
        {
          "address": "0x870ac11d48b15db9a138cf899d20f13f79ba00bc",
          "topics": [
            "0x7120161a7b3d31251e01294ab351ef15a41b91659a36032e4641bb89b121e321",
            "0x55609be688a4d96e715bfe39969133bd4e7f83db4f77bb06216109189a11f2e5"
          ],
          "data": "0x0000000000000000000000000000000000000000000000000000000012e687bf000000000000000000000000000000000000000000000000000000004b9a1eff",
          "blockHash": "0x46db4d293713e4b6f2320200fcfd4b405bd090f627ead926352dfc1394d02331",
          "blockNumber": "0x1788708",
          "blockTimestamp": "0x69b91467",
          "transactionHash": "0x21460b83e891a78aa108591709fcea1e39d8a7b6f7ca3da674d525fd47c38095",
          "transactionIndex": "0xac",
          "logIndex": "0x158",
          "removed": false
        }
      ],
      "logsBloom": "0x00000000000000000000000000000800000000000000000000000000000000000000000000000000000000000000000000000000000000000000000000844000000000000010000000000000000000000000000000200000000010000000000000000000200000000000000000000000000000000000000000000040000000000000004000000008000000000000000000000000000000000000000000000000000000000000000000000000000000000000000000000000000000000000000020000000000000000001000000000000000000000000000000000000000000000000000000000000000000000001000000000000000000000000000000000010",
      "type": "0x2",
      "transactionHash": "0x21460b83e891a78aa108591709fcea1e39d8a7b6f7ca3da674d525fd47c38095",
      "transactionIndex": "0xac",
      "blockHash": "0x46db4d293713e4b6f2320200fcfd4b405bd090f627ead926352dfc1394d02331",
      "blockNumber": "0x1788708",
      "gasUsed": "0x30af3",
      "effectiveGasPrice": "0x56c92a3",
      "from": "0xe173b056ef552c7322040703ddfc1e0638a575d3",
      "to": "0xbbbbbbbbbb9cc5e90e3b3af64bdaf62c37eeffcb",
      "contractAddress": null
    },
    {
      "status": "0x1",
      "cumulativeGasUsed": "0x113b759",
      "logs": [
        {
          "address": "0xca83dde9c22254f58e771be5e157773212acbac3",
          "topics": [
            "0x8c5be1e5ebec7d5bd14f71427d1e84f3dd0314c0f7b2291e5b200ac8c7c3b925",
            "0x000000000000000000000000e173b056ef552c7322040703ddfc1e0638a575d3",
            "0x000000000000000000000000bbbbbbbbbb9cc5e90e3b3af64bdaf62c37eeffcb"
          ],
          "data": "0x0000000000000000000000000000000000000000000000000de0b6b3a7640000",
          "blockHash": "0x52b00a01479c8284907e38ed1dcb93b24daef55a798ec6d2a8c18c3c278f0c0b",
          "blockNumber": "0x1788709",
          "blockTimestamp": "0x69b91473",
          "transactionHash": "0xc47a8cd8e1b20a62682ec2fc850e31063e0e59fbfcb06a008d3c299873e7a61a",
          "transactionIndex": "0x141",
          "logIndex": "0x184",
          "removed": false
        }
      ],
      "logsBloom": "0x00000000000000000000000002000080000000000000000000000000000000000000000400000000000000000000000800000000000000000000000004200000000000000000000000000000000000000000000000000000000000000000000008000000000100000000000000000000000000000000000000000000000000000000000000000000000000000000000000000000000000000000000000000000020000000000000000000000000000000000000000000000000000000000000000000000000000000000000000000000000000000000000000000000000000000010000001000000000000200000000000000000000000000000000000000000",
      "type": "0x2",
      "transactionHash": "0xc47a8cd8e1b20a62682ec2fc850e31063e0e59fbfcb06a008d3c299873e7a61a",
      "transactionIndex": "0x141",
      "blockHash": "0x52b00a01479c8284907e38ed1dcb93b24daef55a798ec6d2a8c18c3c278f0c0b",
      "blockNumber": "0x1788709",
      "gasUsed": "0xb54c",
      "effectiveGasPrice": "0x58f8e2f",
      "from": "0xe173b056ef552c7322040703ddfc1e0638a575d3",
      "to": "0xca83dde9c22254f58e771be5e157773212acbac3",
      "contractAddress": null
    },
    {
      "status": "0x1",
      "cumulativeGasUsed": "0xe4f0b3",
      "logs": [
        {
          "address": "0x06ea695b91700071b161a434fed42d1dcbad9f00",
          "topics": [
            "0x8c5be1e5ebec7d5bd14f71427d1e84f3dd0314c0f7b2291e5b200ac8c7c3b925",
            "0x000000000000000000000000e173b056ef552c7322040703ddfc1e0638a575d3",
            "0x000000000000000000000000bbbbbbbbbb9cc5e90e3b3af64bdaf62c37eeffcb"
          ],
          "data": "0x0000000000000000000000000000000000000000000000000000000000000834",
          "blockHash": "0xf7578eeb9b450d4aebf2c6eb4c3f0b33a9450b0b4b6c7280724a427b7eb393fa",
          "blockNumber": "0x178870a",
          "blockTimestamp": "0x69b9147f",
          "transactionHash": "0xb81578cfc007f4ea10df34daa7d8ca8aa14bbf56c554cb74915e5dfa4eba5c0e",
          "transactionIndex": "0xf0",
          "logIndex": "0x107",
          "removed": false
        }
      ],
      "logsBloom": "0x00000000000000000000000002000080000000000000000000000000000000000000000000000000000000001000000000000000000000000000000024200000000000000000000000000000000000000000000000000000000000000000000000000000000100000000000000000000000000000000000000000000000000000000000000000000000000000000000000000000000000000000000000000000020000000000000000000000000000000000000200000000000000000000000000000000000000000000000000000000000000000000000000000000000000000010000001000000000000200000000000000000000000000000000000000000",
      "type": "0x2",
      "transactionHash": "0xb81578cfc007f4ea10df34daa7d8ca8aa14bbf56c554cb74915e5dfa4eba5c0e",
      "transactionIndex": "0xf0",
      "blockHash": "0xf7578eeb9b450d4aebf2c6eb4c3f0b33a9450b0b4b6c7280724a427b7eb393fa",
      "blockNumber": "0x178870a",
      "gasUsed": "0xbd7f",
      "effectiveGasPrice": "0x55de3c6",
      "from": "0xe173b056ef552c7322040703ddfc1e0638a575d3",
      "to": "0x06ea695b91700071b161a434fed42d1dcbad9f00",
      "contractAddress": null
    },
    {
      "status": "0x1",
      "cumulativeGasUsed": "0x1f9bd47",
      "logs": [
        {
          "address": "0x870ac11d48b15db9a138cf899d20f13f79ba00bc",
          "topics": [
            "0x7120161a7b3d31251e01294ab351ef15a41b91659a36032e4641bb89b121e321",
            "0x55609be688a4d96e715bfe39969133bd4e7f83db4f77bb06216109189a11f2e5"
          ],
          "data": "0x0000000000000000000000000000000000000000000000000000000012e6589d000000000000000000000000000000000000000000000000000000004b98a5f1",
          "blockHash": "0x2fc4de3b3333ea8dda04766209678c5f6d1ca752b46efd7c62019fb0b1df60f4",
          "blockNumber": "0x178870c",
          "blockTimestamp": "0x69b91497",
          "transactionHash": "0xd5eb1ca8b4faa693b86809c9ab9c58a752ba1f31b61fe6963c1b87828a37ef91",
          "transactionIndex": "0x236",
          "logIndex": "0x1d4",
          "removed": false
        },
        {
          "address": "0xbbbbbbbbbb9cc5e90e3b3af64bdaf62c37eeffcb",
          "topics": [
            "0x9d9bd501d0657d7dfe415f779a620a62b78bc508ddc0891fbbd8b7ac0f8fce87",
            "0x55609be688a4d96e715bfe39969133bd4e7f83db4f77bb06216109189a11f2e5"
          ],
          "data": "0x0000000000000000000000000000000000000000000000000000000012e6589d00000000000000000000000000000000000000000000000000000000000000000000000000000000000000000000000000000000000000000000000000000000",
          "blockHash": "0x2fc4de3b3333ea8dda04766209678c5f6d1ca752b46efd7c62019fb0b1df60f4",
          "blockNumber": "0x178870c",
          "blockTimestamp": "0x69b91497",
          "transactionHash": "0xd5eb1ca8b4faa693b86809c9ab9c58a752ba1f31b61fe6963c1b87828a37ef91",
          "transactionIndex": "0x236",
          "logIndex": "0x1d5",
          "removed": false
        },
        {
          "address": "0xbbbbbbbbbb9cc5e90e3b3af64bdaf62c37eeffcb",
          "topics": [
            "0xedf8870433c83823eb071d3df1caa8d008f12f6440918c20d75a3602cda30fe0",
            "0x55609be688a4d96e715bfe39969133bd4e7f83db4f77bb06216109189a11f2e5",
            "0x000000000000000000000000e173b056ef552c7322040703ddfc1e0638a575d3",
            "0x000000000000000000000000e173b056ef552c7322040703ddfc1e0638a575d3"
          ],
          "data": "0x0000000000000000000000000000000000000000000000000de0b6b3a764000000000000000000000000000000000000000000000000d3c21bcecceda1000000",
          "blockHash": "0x2fc4de3b3333ea8dda04766209678c5f6d1ca752b46efd7c62019fb0b1df60f4",
          "blockNumber": "0x178870c",
          "blockTimestamp": "0x69b91497",
          "transactionHash": "0xd5eb1ca8b4faa693b86809c9ab9c58a752ba1f31b61fe6963c1b87828a37ef91",
          "transactionIndex": "0x236",
          "logIndex": "0x1d6",
          "removed": false
        },
        {
          "address": "0xca83dde9c22254f58e771be5e157773212acbac3",
          "topics": [
            "0xddf252ad1be2c89b69c2b068fc378daa952ba7f163c4a11628f55a4df523b3ef",
            "0x000000000000000000000000e173b056ef552c7322040703ddfc1e0638a575d3",
            "0x000000000000000000000000bbbbbbbbbb9cc5e90e3b3af64bdaf62c37eeffcb"
          ],
          "data": "0x0000000000000000000000000000000000000000000000000de0b6b3a7640000",
          "blockHash": "0x2fc4de3b3333ea8dda04766209678c5f6d1ca752b46efd7c62019fb0b1df60f4",
          "blockNumber": "0x178870c",
          "blockTimestamp": "0x69b91497",
          "transactionHash": "0xd5eb1ca8b4faa693b86809c9ab9c58a752ba1f31b61fe6963c1b87828a37ef91",
          "transactionIndex": "0x236",
          "logIndex": "0x1d7",
          "removed": false
        }
      ],
      "logsBloom": "0x00000000000000000000000002000080000000000000000000000000000000000000400400000000000000000000000800000000000000000000000024844000000000000010000000000008800000000000000800200000000010080000000008000000200100000000000000000000000000000000000000000010000000000000004000000008000000000000000000000000000000000000000000000000000000000000000000000000000000000000000000000000000000000000000020000002000000000001000000000000000000000000000000000000000000400000000001000000000000200001000000000000000000000000000000000000",
      "type": "0x2",
      "transactionHash": "0xd5eb1ca8b4faa693b86809c9ab9c58a752ba1f31b61fe6963c1b87828a37ef91",
      "transactionIndex": "0x236",
      "blockHash": "0x2fc4de3b3333ea8dda04766209678c5f6d1ca752b46efd7c62019fb0b1df60f4",
      "blockNumber": "0x178870c",
      "gasUsed": "0x22a69",
      "effectiveGasPrice": "0x4fd16b3",
      "from": "0xe173b056ef552c7322040703ddfc1e0638a575d3",
      "to": "0xbbbbbbbbbb9cc5e90e3b3af64bdaf62c37eeffcb",
      "contractAddress": null
    },
    {
      "status": "0x1",
      "cumulativeGasUsed": "0xc4a480",
      "logs": [
        {
          "address": "0xbbbbbbbbbb9cc5e90e3b3af64bdaf62c37eeffcb",
          "topics": [
            "0xa3b9472a1399e17e123f3c2e6586c23e504184d504de59cdaa2b375e880c6184",
            "0x55609be688a4d96e715bfe39969133bd4e7f83db4f77bb06216109189a11f2e5",
            "0x000000000000000000000000e173b056ef552c7322040703ddfc1e0638a575d3",
            "0x000000000000000000000000e173b056ef552c7322040703ddfc1e0638a575d3"
          ],
          "data": "0x0000000000000000000000000000000000000000000000000000000000000834",
          "blockHash": "0xc74aa182d31da8d0edafa242b56bd24d1b480c65783633baa2c6054cb62444e5",
          "blockNumber": "0x178870d",
          "blockTimestamp": "0x69b914a3",
          "transactionHash": "0x58e7c91d058f5afc895cf5040abc172bb7b8c7652bcc5343026142410d5ea4ca",
          "transactionIndex": "0x4f",
          "logIndex": "0x1d5",
          "removed": false
        },
        {
          "address": "0x06ea695b91700071b161a434fed42d1dcbad9f00",
          "topics": [
            "0xddf252ad1be2c89b69c2b068fc378daa952ba7f163c4a11628f55a4df523b3ef",
            "0x000000000000000000000000e173b056ef552c7322040703ddfc1e0638a575d3",
            "0x000000000000000000000000bbbbbbbbbb9cc5e90e3b3af64bdaf62c37eeffcb"
          ],
          "data": "0x0000000000000000000000000000000000000000000000000000000000000834",
          "blockHash": "0xc74aa182d31da8d0edafa242b56bd24d1b480c65783633baa2c6054cb62444e5",
          "blockNumber": "0x178870d",
          "blockTimestamp": "0x69b914a3",
          "transactionHash": "0x58e7c91d058f5afc895cf5040abc172bb7b8c7652bcc5343026142410d5ea4ca",
          "transactionIndex": "0x4f",
          "logIndex": "0x1d6",
          "removed": false
        }
      ],
      "logsBloom": "0x0000000000000000000000000200008000000000000000000000000000000000000000000000000000000000100000000000000000000000000000002400000000000000001000000000000800000000000000000000000000001000000000000000000020010000000000000000000000000000000000000000001000000000000000c000000008000000000000000000000000000000000000000000000000000000000000000000000000000000000000000200000000000000000000000020000002000000000000000000000000000000000000000400000000000000000000000001000000000000200000200000000000000000000000000000000000",
      "type": "0x2",
      "transactionHash": "0x58e7c91d058f5afc895cf5040abc172bb7b8c7652bcc5343026142410d5ea4ca",
      "transactionIndex": "0x4f",
      "blockHash": "0xc74aa182d31da8d0edafa242b56bd24d1b480c65783633baa2c6054cb62444e5",
      "blockNumber": "0x178870d",
      "gasUsed": "0x128bf",
      "effectiveGasPrice": "0x546b7db",
      "from": "0xe173b056ef552c7322040703ddfc1e0638a575d3",
      "to": "0xbbbbbbbbbb9cc5e90e3b3af64bdaf62c37eeffcb",
      "contractAddress": null
    },
    {
      "status": "0x1",
      "cumulativeGasUsed": "0x165bebb",
      "logs": [
        {
          "address": "0x870ac11d48b15db9a138cf899d20f13f79ba00bc",
          "topics": [
            "0x7120161a7b3d31251e01294ab351ef15a41b91659a36032e4641bb89b121e321",
            "0x55609be688a4d96e715bfe39969133bd4e7f83db4f77bb06216109189a11f2e5"
          ],
          "data": "0x0000000000000000000000000000000000000000000000000000000012e611eb000000000000000000000000000000000000000000000000000000004b97e96d",
          "blockHash": "0xfdbe5839dc364c58e185d650c61fd73fae10ea26e2bba2c8154b4a3227e430cc",
          "blockNumber": "0x178870e",
          "blockTimestamp": "0x69b914af",
          "transactionHash": "0x4337498cfd37ed07ddf66e3dc7c44d1b19ef685d9f87d5d588a3b8c489f2b77f",
          "transactionIndex": "0xf2",
          "logIndex": "0x214",
          "removed": false
        },
        {
          "address": "0xbbbbbbbbbb9cc5e90e3b3af64bdaf62c37eeffcb",
          "topics": [
            "0x9d9bd501d0657d7dfe415f779a620a62b78bc508ddc0891fbbd8b7ac0f8fce87",
            "0x55609be688a4d96e715bfe39969133bd4e7f83db4f77bb06216109189a11f2e5"
          ],
          "data": "0x0000000000000000000000000000000000000000000000000000000012e611eb00000000000000000000000000000000000000000000000000000000000000000000000000000000000000000000000000000000000000000000000000000000",
          "blockHash": "0xfdbe5839dc364c58e185d650c61fd73fae10ea26e2bba2c8154b4a3227e430cc",
          "blockNumber": "0x178870e",
          "blockTimestamp": "0x69b914af",
          "transactionHash": "0x4337498cfd37ed07ddf66e3dc7c44d1b19ef685d9f87d5d588a3b8c489f2b77f",
          "transactionIndex": "0xf2",
          "logIndex": "0x215",
          "removed": false
        },
        {
          "address": "0xbbbbbbbbbb9cc5e90e3b3af64bdaf62c37eeffcb",
          "topics": [
            "0x570954540bed6b1304a87dfe815a5eda4a648f7097a16240dcd85c9b5fd42a43",
            "0x55609be688a4d96e715bfe39969133bd4e7f83db4f77bb06216109189a11f2e5",
            "0x000000000000000000000000e173b056ef552c7322040703ddfc1e0638a575d3",
            "0x000000000000000000000000e173b056ef552c7322040703ddfc1e0638a575d3"
          ],
          "data": "0x000000000000000000000000e173b056ef552c7322040703ddfc1e0638a575d30000000000000000000000000000000000000000000000000c7d713b49da000000000000000000000000000000000000000000000000be951906eba2aa800000",
          "blockHash": "0xfdbe5839dc364c58e185d650c61fd73fae10ea26e2bba2c8154b4a3227e430cc",
          "blockNumber": "0x178870e",
          "blockTimestamp": "0x69b914af",
          "transactionHash": "0x4337498cfd37ed07ddf66e3dc7c44d1b19ef685d9f87d5d588a3b8c489f2b77f",
          "transactionIndex": "0xf2",
          "logIndex": "0x216",
          "removed": false
        },
        {
          "address": "0xca83dde9c22254f58e771be5e157773212acbac3",
          "topics": [
            "0xddf252ad1be2c89b69c2b068fc378daa952ba7f163c4a11628f55a4df523b3ef",
            "0x000000000000000000000000bbbbbbbbbb9cc5e90e3b3af64bdaf62c37eeffcb",
            "0x000000000000000000000000e173b056ef552c7322040703ddfc1e0638a575d3"
          ],
          "data": "0x0000000000000000000000000000000000000000000000000c7d713b49da0000",
          "blockHash": "0xfdbe5839dc364c58e185d650c61fd73fae10ea26e2bba2c8154b4a3227e430cc",
          "blockNumber": "0x178870e",
          "blockTimestamp": "0x69b914af",
          "transactionHash": "0x4337498cfd37ed07ddf66e3dc7c44d1b19ef685d9f87d5d588a3b8c489f2b77f",
          "transactionIndex": "0xf2",
          "logIndex": "0x217",
          "removed": false
        }
      ],
      "logsBloom": "0x00000000000000000002000002000080000000000000000000000000000000000000400400000000000000000000000800000000000000000000000024844000000000000010000000000008000000000000000000200000000010080000000008000000200100000000000000000000000000000000000000000010000000000000004000000008000000000000000000000000000000000000000000000000000000000000000000000000000000000000000000000000000000000000000020000002000000000001000000000000000000000000000000000000000000000000004001000008000000200001000000000000000000000000000000000000",
      "type": "0x2",
      "transactionHash": "0x4337498cfd37ed07ddf66e3dc7c44d1b19ef685d9f87d5d588a3b8c489f2b77f",
      "transactionIndex": "0xf2",
      "blockHash": "0xfdbe5839dc364c58e185d650c61fd73fae10ea26e2bba2c8154b4a3227e430cc",
      "blockNumber": "0x178870e",
      "gasUsed": "0x21d60",
      "effectiveGasPrice": "0x583b1f0",
      "from": "0xe173b056ef552c7322040703ddfc1e0638a575d3",
      "to": "0xbbbbbbbbbb9cc5e90e3b3af64bdaf62c37eeffcb",
      "contractAddress": null
    }
  ],
  "libraries": [],
  "pending": [],
  "returns": {},
  "timestamp": 1773737138,
  "chain": 1,
  "commit": "dd1d934"
}